{
  "_format": "hh-sol-artifact-1",
  "contractName": "BundleToken",
  "sourceName": "contracts/BundleToken.sol",
  "abi": [
    {
      "inputs": [
        {
          "internalType": "string",
          "name": "name_",
          "type": "string"
        },
        {
          "internalType": "string",
          "name": "symbol_",
          "type": "string"
        },
        {
          "internalType": "string",
          "name": "description_",
          "type": "string"
        },
        {
          "internalType": "address[]",
          "name": "ipAssets_",
          "type": "address[]"
        },
        {
          "internalType": "uint256[]",
          "name": "shares_",
          "type": "uint256[]"
        },
        {
          "internalType": "uint256",
          "name": "totalSupply_",
          "type": "uint256"
        }
      ],
      "stateMutability": "nonpayable",
      "type": "constructor"
    },
    {
      "inputs": [
        {
          "internalType": "address",
          "name": "spender",
          "type": "address"
        },
        {
          "internalType": "uint256",
          "name": "allowance",
          "type": "uint256"
        },
        {
          "internalType": "uint256",
          "name": "needed",
          "type": "uint256"
        }
      ],
      "name": "ERC20InsufficientAllowance",
      "type": "error"
    },
    {
      "inputs": [
        {
          "internalType": "address",
          "name": "sender",
          "type": "address"
        },
        {
          "internalType": "uint256",
          "name": "balance",
          "type": "uint256"
        },
        {
          "internalType": "uint256",
          "name": "needed",
          "type": "uint256"
        }
      ],
      "name": "ERC20InsufficientBalance",
      "type": "error"
    },
    {
      "inputs": [
        {
          "internalType": "address",
          "name": "approver",
          "type": "address"
        }
      ],
      "name": "ERC20InvalidApprover",
      "type": "error"
    },
    {
      "inputs": [
        {
          "internalType": "address",
          "name": "receiver",
          "type": "address"
        }
      ],
      "name": "ERC20InvalidReceiver",
      "type": "error"
    },
    {
      "inputs": [
        {
          "internalType": "address",
          "name": "sender",
          "type": "address"
        }
      ],
      "name": "ERC20InvalidSender",
      "type": "error"
    },
    {
      "inputs": [
        {
          "internalType": "address",
          "name": "spender",
          "type": "address"
        }
      ],
      "name": "ERC20InvalidSpender",
      "type": "error"
    },
    {
      "inputs": [
        {
          "internalType": "address",
          "name": "owner",
          "type": "address"
        }
      ],
      "name": "OwnableInvalidOwner",
      "type": "error"
    },
    {
      "inputs": [
        {
          "internalType": "address",
          "name": "account",
          "type": "address"
        }
      ],
      "name": "OwnableUnauthorizedAccount",
      "type": "error"
    },
    {
      "inputs": [],
      "name": "ReentrancyGuardReentrantCall",
      "type": "error"
    },
    {
      "anonymous": false,
      "inputs": [
        {
          "indexed": true,
          "internalType": "address",
          "name": "owner",
          "type": "address"
        },
        {
          "indexed": true,
          "internalType": "address",
          "name": "spender",
          "type": "address"
        },
        {
          "indexed": false,
          "internalType": "uint256",
          "name": "value",
          "type": "uint256"
        }
      ],
      "name": "Approval",
      "type": "event"
    },
    {
      "anonymous": false,
      "inputs": [
        {
          "indexed": true,
          "internalType": "address",
          "name": "ipAsset",
          "type": "address"
        },
        {
          "indexed": false,
          "internalType": "uint256",
          "name": "share",
          "type": "uint256"
        }
      ],
      "name": "IPAssetAdded",
      "type": "event"
    },
    {
      "anonymous": false,
      "inputs": [
        {
          "indexed": true,
          "internalType": "address",
          "name": "previousOwner",
          "type": "address"
        },
        {
          "indexed": true,
          "internalType": "address",
          "name": "newOwner",
          "type": "address"
        }
      ],
      "name": "OwnershipTransferred",
      "type": "event"
    },
    {
      "anonymous": false,
      "inputs": [
        {
          "indexed": true,
          "internalType": "address",
          "name": "user",
          "type": "address"
        },
        {
          "indexed": false,
          "internalType": "uint256",
          "name": "amount",
          "type": "uint256"
        }
      ],
      "name": "RoyaltiesClaimed",
      "type": "event"
    },
    {
      "anonymous": false,
      "inputs": [
        {
          "indexed": false,
          "internalType": "uint256",
          "name": "amount",
          "type": "uint256"
        },
        {
          "indexed": false,
          "internalType": "uint256",
          "name": "newRoyaltiesPerToken",
          "type": "uint256"
        }
      ],
      "name": "RoyaltiesDistributed",
      "type": "event"
    },
    {
      "anonymous": false,
      "inputs": [
        {
          "indexed": true,
          "internalType": "address",
          "name": "from",
          "type": "address"
        },
        {
          "indexed": true,
          "internalType": "address",
          "name": "to",
          "type": "address"
        },
        {
          "indexed": false,
          "internalType": "uint256",
          "name": "value",
          "type": "uint256"
        }
      ],
      "name": "Transfer",
      "type": "event"
    },
    {
      "inputs": [
        {
          "internalType": "address",
          "name": "owner",
          "type": "address"
        },
        {
          "internalType": "address",
          "name": "spender",
          "type": "address"
        }
      ],
      "name": "allowance",
      "outputs": [
        {
          "internalType": "uint256",
          "name": "",
          "type": "uint256"
        }
      ],
      "stateMutability": "view",
      "type": "function"
    },
    {
      "inputs": [
        {
          "internalType": "address",
          "name": "spender",
          "type": "address"
        },
        {
          "internalType": "uint256",
          "name": "value",
          "type": "uint256"
        }
      ],
      "name": "approve",
      "outputs": [
        {
          "internalType": "bool",
          "name": "",
          "type": "bool"
        }
      ],
      "stateMutability": "nonpayable",
      "type": "function"
    },
    {
      "inputs": [
        {
          "internalType": "address",
          "name": "account",
          "type": "address"
        }
      ],
      "name": "balanceOf",
      "outputs": [
        {
          "internalType": "uint256",
          "name": "",
          "type": "uint256"
        }
      ],
      "stateMutability": "view",
      "type": "function"
    },
    {
      "inputs": [],
      "name": "bundleDescription",
      "outputs": [
        {
          "internalType": "string",
          "name": "",
          "type": "string"
        }
      ],
      "stateMutability": "view",
      "type": "function"
    },
    {
      "inputs": [],
      "name": "claimRoyalties",
      "outputs": [
        {
          "internalType": "uint256",
          "name": "",
          "type": "uint256"
        }
      ],
      "stateMutability": "nonpayable",
      "type": "function"
    },
    {
      "inputs": [],
      "name": "createdAt",
      "outputs": [
        {
          "internalType": "uint256",
          "name": "",
          "type": "uint256"
        }
      ],
      "stateMutability": "view",
      "type": "function"
    },
    {
      "inputs": [],
      "name": "decimals",
      "outputs": [
        {
          "internalType": "uint8",
          "name": "",
          "type": "uint8"
        }
      ],
      "stateMutability": "view",
      "type": "function"
    },
    {
      "inputs": [],
      "name": "distributeRoyalties",
      "outputs": [],
      "stateMutability": "payable",
      "type": "function"
    },
    {
      "inputs": [
        {
          "internalType": "address",
          "name": "account",
          "type": "address"
        }
      ],
      "name": "getClaimableRoyalties",
      "outputs": [
        {
          "internalType": "uint256",
          "name": "",
          "type": "uint256"
        }
      ],
      "stateMutability": "view",
      "type": "function"
    },
    {
      "inputs": [],
      "name": "getIPAssets",
      "outputs": [
        {
          "internalType": "address[]",
          "name": "",
          "type": "address[]"
        }
      ],
      "stateMutability": "view",
      "type": "function"
    },
    {
      "inputs": [
        {
          "internalType": "uint256",
          "name": "",
          "type": "uint256"
        }
      ],
      "name": "ipAssets",
      "outputs": [
        {
          "internalType": "address",
          "name": "",
          "type": "address"
        }
      ],
      "stateMutability": "view",
      "type": "function"
    },
    {
      "inputs": [],
      "name": "name",
      "outputs": [
        {
          "internalType": "string",
          "name": "",
          "type": "string"
        }
      ],
      "stateMutability": "view",
      "type": "function"
    },
    {
      "inputs": [],
      "name": "owner",
      "outputs": [
        {
          "internalType": "address",
          "name": "",
          "type": "address"
        }
      ],
      "stateMutability": "view",
      "type": "function"
    },
    {
      "inputs": [],
      "name": "renounceOwnership",
      "outputs": [],
      "stateMutability": "nonpayable",
      "type": "function"
    },
    {
      "inputs": [
        {
          "internalType": "address",
          "name": "",
          "type": "address"
        }
      ],
      "name": "royaltiesClaimedPerToken",
      "outputs": [
        {
          "internalType": "uint256",
          "name": "",
          "type": "uint256"
        }
      ],
      "stateMutability": "view",
      "type": "function"
    },
    {
      "inputs": [],
      "name": "royaltiesPerToken",
      "outputs": [
        {
          "internalType": "uint256",
          "name": "",
          "type": "uint256"
        }
      ],
      "stateMutability": "view",
      "type": "function"
    },
    {
      "inputs": [
        {
          "internalType": "address",
          "name": "",
          "type": "address"
        }
      ],
      "name": "royaltyShares",
      "outputs": [
        {
          "internalType": "uint256",
          "name": "",
          "type": "uint256"
        }
      ],
      "stateMutability": "view",
      "type": "function"
    },
    {
      "inputs": [],
      "name": "symbol",
      "outputs": [
        {
          "internalType": "string",
          "name": "",
          "type": "string"
        }
      ],
      "stateMutability": "view",
      "type": "function"
    },
    {
      "inputs": [],
      "name": "totalRoyaltiesCollected",
      "outputs": [
        {
          "internalType": "uint256",
          "name": "",
          "type": "uint256"
        }
      ],
      "stateMutability": "view",
      "type": "function"
    },
    {
      "inputs": [],
      "name": "totalSupply",
      "outputs": [
        {
          "internalType": "uint256",
          "name": "",
          "type": "uint256"
        }
      ],
      "stateMutability": "view",
      "type": "function"
    },
    {
      "inputs": [
        {
          "internalType": "address",
          "name": "to",
          "type": "address"
        },
        {
          "internalType": "uint256",
          "name": "value",
          "type": "uint256"
        }
      ],
      "name": "transfer",
      "outputs": [
        {
          "internalType": "bool",
          "name": "",
          "type": "bool"
        }
      ],
      "stateMutability": "nonpayable",
      "type": "function"
    },
    {
      "inputs": [
        {
          "internalType": "address",
          "name": "from",
          "type": "address"
        },
        {
          "internalType": "address",
          "name": "to",
          "type": "address"
        },
        {
          "internalType": "uint256",
          "name": "value",
          "type": "uint256"
        }
      ],
      "name": "transferFrom",
      "outputs": [
        {
          "internalType": "bool",
          "name": "",
          "type": "bool"
        }
      ],
      "stateMutability": "nonpayable",
      "type": "function"
    },
    {
      "inputs": [
        {
          "internalType": "address",
          "name": "newOwner",
          "type": "address"
        }
      ],
      "name": "transferOwnership",
      "outputs": [],
      "stateMutability": "nonpayable",
      "type": "function"
    },
    {
      "stateMutability": "payable",
      "type": "receive"
    }
  ],
  "bytecode": "0x60806040523480156200001157600080fd5b50604051620019fe380380620019fe8339810160408190526200003491620006e3565b33868660036200004583826200085d565b5060046200005482826200085d565b5050506001600160a01b0381166200008757604051631e4fbdf760e01b8152600060048201526024015b60405180910390fd5b620000928162000330565b5060016006558251620000e85760405162461bcd60e51b815260206004820152601f60248201527f4d7573742068617665206174206c65617374206f6e652049502061737365740060448201526064016200007e565b81518351146200013b5760405162461bcd60e51b815260206004820152601660248201527f417272617973206c656e677468206d69736d617463680000000000000000000060448201526064016200007e565b6000805b8351811015620002b0578381815181106200015e576200015e62000929565b6020026020010151826200017391906200093f565b915060078582815181106200018c576200018c62000929565b60209081029190910181015182546001810184556000938452919092200180546001600160a01b0319166001600160a01b039092169190911790558351849082908110620001de57620001de62000929565b602002602001015160086000878481518110620001ff57620001ff62000929565b60200260200101516001600160a01b03166001600160a01b031681526020019081526020016000208190555084818151811062000240576200024062000929565b60200260200101516001600160a01b03167f84d2ff95897b961ed67617d52d29f5bc55052699e462ba4b495319582cd03fe685838151811062000287576200028762000929565b60200260200101516040516200029f91815260200190565b60405180910390a26001016200013f565b508061271014620003045760405162461bcd60e51b815260206004820152601760248201527f536861726573206d7573742073756d20746f203130302500000000000000000060448201526064016200007e565b600c6200031286826200085d565b5042600d5562000323338362000382565b5050505050505062000967565b600580546001600160a01b038381166001600160a01b0319831681179093556040519116919082907f8be0079c531659141344cd1fd0a4f28419497f9722a3daafe3b4186f6b6457e090600090a35050565b6001600160a01b038216620003ae5760405163ec442f0560e01b8152600060048201526024016200007e565b620003bc60008383620003c0565b5050565b6001600160a01b038316620003ef578060026000828254620003e391906200093f565b90915550620004639050565b6001600160a01b03831660009081526020819052604090205481811015620004445760405163391434e360e21b81526001600160a01b038516600482015260248101829052604481018390526064016200007e565b6001600160a01b03841660009081526020819052604090209082900390555b6001600160a01b0382166200048157600280548290039055620004a0565b6001600160a01b03821660009081526020819052604090208054820190555b816001600160a01b0316836001600160a01b03167fddf252ad1be2c89b69c2b068fc378daa952ba7f163c4a11628f55a4df523b3ef83604051620004e691815260200190565b60405180910390a3505050565b634e487b7160e01b600052604160045260246000fd5b604051601f8201601f191681016001600160401b0381118282101715620005345762000534620004f3565b604052919050565b600082601f8301126200054e57600080fd5b81516001600160401b038111156200056a576200056a620004f3565b602062000580601f8301601f1916820162000509565b82815285828487010111156200059557600080fd5b60005b83811015620005b557858101830151828201840152820162000598565b506000928101909101919091529392505050565b60006001600160401b03821115620005e557620005e5620004f3565b5060051b60200190565b600082601f8301126200060157600080fd5b815160206200061a6200061483620005c9565b62000509565b8083825260208201915060208460051b8701019350868411156200063d57600080fd5b602086015b84811015620006725780516001600160a01b0381168114620006645760008081fd5b835291830191830162000642565b509695505050505050565b600082601f8301126200068f57600080fd5b81516020620006a26200061483620005c9565b8083825260208201915060208460051b870101935086841115620006c557600080fd5b602086015b84811015620006725780518352918301918301620006ca565b60008060008060008060c08789031215620006fd57600080fd5b86516001600160401b03808211156200071557600080fd5b620007238a838b016200053c565b975060208901519150808211156200073a57600080fd5b620007488a838b016200053c565b965060408901519150808211156200075f57600080fd5b6200076d8a838b016200053c565b955060608901519150808211156200078457600080fd5b620007928a838b01620005ef565b94506080890151915080821115620007a957600080fd5b50620007b889828a016200067d565b92505060a087015190509295509295509295565b600181811c90821680620007e157607f821691505b6020821081036200080257634e487b7160e01b600052602260045260246000fd5b50919050565b601f82111562000858576000816000526020600020601f850160051c81016020861015620008335750805b601f850160051c820191505b8181101562000854578281556001016200083f565b5050505b505050565b81516001600160401b03811115620008795762000879620004f3565b62000891816200088a8454620007cc565b8462000808565b602080601f831160018114620008c95760008415620008b05750858301515b600019600386901b1c1916600185901b17855562000854565b600085815260208120601f198616915b82811015620008fa57888601518255948401946001909101908401620008d9565b5085821015620009195787850151600019600388901b60f8161c191681555b5050505050600190811b01905550565b634e487b7160e01b600052603260045260246000fd5b808201808211156200096157634e487b7160e01b600052601160045260246000fd5b92915050565b61108780620009776000396000f3fe6080604052600436106101435760003560e01c80638da5cb5b116100b6578063cf09e0d01161006f578063cf09e0d0146103cb578063daf9ade4146103e1578063dd62ed3e146103f7578063eba6bb191461043d578063ed922f681461046a578063f2fde38b1461048c57600080fd5b80638da5cb5b1461030157806395d89b411461033357806398bda4ab14610348578063a9059cbb1461035e578063b1cefb4b1461037e578063c3d5af541461039e57600080fd5b806323b872dd1161010857806323b872dd146102525780632fb8a96e14610272578063313ce5671461027a5780634c4f66871461029657806370a08231146102b6578063715018a6146102ec57600080fd5b80622fc804146101aa578063069b7820146101d557806306fdde03146101f8578063095ea7b31461020d57806318160ddd1461023d57600080fd5b366101a55734156101a357306001600160a01b0316632fb8a96e346040518263ffffffff1660e01b81526004016000604051808303818588803b15801561018957600080fd5b505af115801561019d573d6000803e3d6000fd5b50505050505b005b600080fd5b3480156101b657600080fd5b506101bf6104ac565b6040516101cc9190610e16565b60405180910390f35b3480156101e157600080fd5b506101ea61053a565b6040519081526020016101cc565b34801561020457600080fd5b506101bf610701565b34801561021957600080fd5b5061022d610228366004610e81565b610793565b60405190151581526020016101cc565b34801561024957600080fd5b506002546101ea565b34801561025e57600080fd5b5061022d61026d366004610eab565b6107ad565b6101a36107d1565b34801561028657600080fd5b50604051601281526020016101cc565b3480156102a257600080fd5b506101ea6102b1366004610ee7565b61090f565b3480156102c257600080fd5b506101ea6102d1366004610ee7565b6001600160a01b031660009081526020819052604090205490565b3480156102f857600080fd5b506101a3610986565b34801561030d57600080fd5b506005546001600160a01b03165b6040516001600160a01b0390911681526020016101cc565b34801561033f57600080fd5b506101bf610998565b34801561035457600080fd5b506101ea60095481565b34801561036a57600080fd5b5061022d610379366004610e81565b6109a7565b34801561038a57600080fd5b5061031b610399366004610f09565b6109b5565b3480156103aa57600080fd5b506101ea6103b9366004610ee7565b600b6020526000908152604090205481565b3480156103d757600080fd5b506101ea600d5481565b3480156103ed57600080fd5b506101ea600a5481565b34801561040357600080fd5b506101ea610412366004610f22565b6001600160a01b03918216600090815260016020908152604080832093909416825291909152205490565b34801561044957600080fd5b506101ea610458366004610ee7565b60086020526000908152604090205481565b34801561047657600080fd5b5061047f6109df565b6040516101cc9190610f55565b34801561049857600080fd5b506101a36104a7366004610ee7565b610a40565b600c80546104b990610fa2565b80601f01602080910402602001604051908101604052809291908181526020018280546104e590610fa2565b80156105325780601f1061050757610100808354040283529160200191610532565b820191906000526020600020905b81548152906001019060200180831161051557829003601f168201915b505050505081565b6000610544610a7e565b33600090815260208190526040902054806105975760405162461bcd60e51b815260206004820152600e60248201526d139bc81d1bdad95b9cc81a195b1960921b60448201526064015b60405180910390fd5b336000908152600b6020526040812054600a546105b49190610ff2565b90506000670de0b6b3a76400006105cb8385611005565b6105d5919061101c565b90506000811161061f5760405162461bcd60e51b81526020600482015260156024820152744e6f20726f79616c7469657320746f20636c61696d60581b604482015260640161058e565b600a54336000818152600b602052604080822093909355915183908381818185875af1925050503d8060008114610672576040519150601f19603f3d011682016040523d82523d6000602084013e610677565b606091505b50509050806106ba5760405162461bcd60e51b815260206004820152600f60248201526e151c985b9cd9995c8819985a5b1959608a1b604482015260640161058e565b60405182815233907f8fbbda19f4a70036f6f585dc4160142a8fa2a20ffb9393d23274f78de4e398889060200160405180910390a250925050506106fe6001600655565b90565b60606003805461071090610fa2565b80601f016020809104026020016040519081016040528092919081815260200182805461073c90610fa2565b80156107895780601f1061075e57610100808354040283529160200191610789565b820191906000526020600020905b81548152906001019060200180831161076c57829003601f168201915b5050505050905090565b6000336107a1818585610aa8565b60019150505b92915050565b6000336107bb858285610aba565b6107c6858585610b39565b506001949350505050565b6107d9610a7e565b600034116108295760405162461bcd60e51b815260206004820152601a60248201527f4e6f20726f79616c7469657320746f2064697374726962757465000000000000604482015260640161058e565b600061083460025490565b116108735760405162461bcd60e51b815260206004820152600f60248201526e139bc81d1bdad95b9cc8195e1a5cdd608a1b604482015260640161058e565b3460096000828254610885919061103e565b90915550506002546000906108a234670de0b6b3a7640000611005565b6108ac919061101c565b905080600a60008282546108c0919061103e565b9091555050600a546040805134815260208101929092527fc429605ac291edfeea417caaecf1c5a5f6e6f150482a9c16a825780318e7b413910160405180910390a15061090d6001600655565b565b6001600160a01b038116600090815260208190526040812054806000036109395750600092915050565b6001600160a01b0383166000908152600b6020526040812054600a5461095f9190610ff2565b9050670de0b6b3a76400006109748284611005565b61097e919061101c565b949350505050565b61098e610b98565b61090d6000610bc5565b60606004805461071090610fa2565b6000336107a1818585610b39565b600781815481106109c557600080fd5b6000918252602090912001546001600160a01b0316905081565b6060600780548060200260200160405190810160405280929190818152602001828054801561078957602002820191906000526020600020905b81546001600160a01b03168152600190910190602001808311610a19575050505050905090565b610a48610b98565b6001600160a01b038116610a7257604051631e4fbdf760e01b81526000600482015260240161058e565b610a7b81610bc5565b50565b600260065403610aa157604051633ee5aeb560e01b815260040160405180910390fd5b6002600655565b610ab58383836001610c17565b505050565b6001600160a01b03838116600090815260016020908152604080832093861683529290522054600019811015610b335781811015610b2457604051637dc7a0d960e11b81526001600160a01b0384166004820152602481018290526044810183905260640161058e565b610b3384848484036000610c17565b50505050565b6001600160a01b038316610b6357604051634b637e8f60e11b81526000600482015260240161058e565b6001600160a01b038216610b8d5760405163ec442f0560e01b81526000600482015260240161058e565b610ab5838383610cec565b6005546001600160a01b0316331461090d5760405163118cdaa760e01b815233600482015260240161058e565b600580546001600160a01b038381166001600160a01b0319831681179093556040519116919082907f8be0079c531659141344cd1fd0a4f28419497f9722a3daafe3b4186f6b6457e090600090a35050565b6001600160a01b038416610c415760405163e602df0560e01b81526000600482015260240161058e565b6001600160a01b038316610c6b57604051634a1406b160e11b81526000600482015260240161058e565b6001600160a01b0380851660009081526001602090815260408083209387168352929052208290558015610b3357826001600160a01b0316846001600160a01b03167f8c5be1e5ebec7d5bd14f71427d1e84f3dd0314c0f7b2291e5b200ac8c7c3b92584604051610cde91815260200190565b60405180910390a350505050565b6001600160a01b038316610d17578060026000828254610d0c919061103e565b90915550610d899050565b6001600160a01b03831660009081526020819052604090205481811015610d6a5760405163391434e360e21b81526001600160a01b0385166004820152602481018290526044810183905260640161058e565b6001600160a01b03841660009081526020819052604090209082900390555b6001600160a01b038216610da557600280548290039055610dc4565b6001600160a01b03821660009081526020819052604090208054820190555b816001600160a01b0316836001600160a01b03167fddf252ad1be2c89b69c2b068fc378daa952ba7f163c4a11628f55a4df523b3ef83604051610e0991815260200190565b60405180910390a3505050565b60006020808352835180602085015260005b81811015610e4457858101830151858201604001528201610e28565b506000604082860101526040601f19601f8301168501019250505092915050565b80356001600160a01b0381168114610e7c57600080fd5b919050565b60008060408385031215610e9457600080fd5b610e9d83610e65565b946020939093013593505050565b600080600060608486031215610ec057600080fd5b610ec984610e65565b9250610ed760208501610e65565b9150604084013590509250925092565b600060208284031215610ef957600080fd5b610f0282610e65565b9392505050565b600060208284031215610f1b57600080fd5b5035919050565b60008060408385031215610f3557600080fd5b610f3e83610e65565b9150610f4c60208401610e65565b90509250929050565b6020808252825182820181905260009190848201906040850190845b81811015610f965783516001600160a01b031683529284019291840191600101610f71565b50909695505050505050565b600181811c90821680610fb657607f821691505b602082108103610fd657634e487b7160e01b600052602260045260246000fd5b50919050565b634e487b7160e01b600052601160045260246000fd5b818103818111156107a7576107a7610fdc565b80820281158282048414176107a7576107a7610fdc565b60008261103957634e487b7160e01b600052601260045260246000fd5b500490565b808201808211156107a7576107a7610fdc56fea264697066735822122052bfbca19e33fa88a69ff59882e7c3e0cfb4c84923820eba77dd3725e7de728064736f6c63430008170033",
  "linkReferences": {},
  "deployedLinkReferences": {}
}